{
  "_format": "hh-sol-artifact-1",
  "contractName": "Voting",
  "sourceName": "contracts/Voting.sol",
  "abi": [
    {
      "inputs": [
        {
          "internalType": "uint256",
          "name": "_roundDuration",
          "type": "uint256"
        },
        {
          "internalType": "string",
          "name": "_proposalUri",
          "type": "string"
        }
      ],
      "stateMutability": "nonpayable",
      "type": "constructor"
    },
    {
      "anonymous": false,
      "inputs": [
        {
          "indexed": true,
          "internalType": "address",
          "name": "previousOwner",
          "type": "address"
        },
        {
          "indexed": true,
          "internalType": "address",
          "name": "newOwner",
          "type": "address"
        }
      ],
      "name": "OwnershipTransferred",
      "type": "event"
    },
    {
      "inputs": [
        {
          "internalType": "address",
          "name": "",
          "type": "address"
        }
      ],
      "name": "choices",
      "outputs": [
        {
          "internalType": "enum Voting.Choice",
          "name": "",
          "type": "uint8"
        }
      ],
      "stateMutability": "view",
      "type": "function"
    },
    {
      "inputs": [],
      "name": "getBlockTimestamp",
      "outputs": [
        {
          "internalType": "uint256",
          "name": "",
          "type": "uint256"
        }
      ],
      "stateMutability": "view",
      "type": "function"
    },
    {
      "inputs": [],
      "name": "getVotesResult",
      "outputs": [
        {
          "components": [
            {
              "internalType": "uint256",
              "name": "yes",
              "type": "uint256"
            },
            {
              "internalType": "uint256",
              "name": "no",
              "type": "uint256"
            },
            {
              "internalType": "uint256",
              "name": "abstain",
              "type": "uint256"
            }
          ],
          "internalType": "struct Voting.Votes",
          "name": "",
          "type": "tuple"
        }
      ],
      "stateMutability": "view",
      "type": "function"
    },
    {
      "inputs": [],
      "name": "owner",
      "outputs": [
        {
          "internalType": "address",
          "name": "",
          "type": "address"
        }
      ],
      "stateMutability": "view",
      "type": "function"
    },
    {
      "inputs": [],
      "name": "proposalUri",
      "outputs": [
        {
          "internalType": "string",
          "name": "",
          "type": "string"
        }
      ],
      "stateMutability": "view",
      "type": "function"
    },
    {
      "inputs": [],
      "name": "renounceOwnership",
      "outputs": [],
      "stateMutability": "nonpayable",
      "type": "function"
    },
    {
      "inputs": [],
      "name": "startVote",
      "outputs": [],
      "stateMutability": "nonpayable",
      "type": "function"
    },
    {
      "inputs": [
        {
          "internalType": "address",
          "name": "newOwner",
          "type": "address"
        }
      ],
      "name": "transferOwnership",
      "outputs": [],
      "stateMutability": "nonpayable",
      "type": "function"
    },
    {
      "inputs": [],
      "name": "voteAbstain",
      "outputs": [],
      "stateMutability": "nonpayable",
      "type": "function"
    },
    {
      "inputs": [],
      "name": "voteNo",
      "outputs": [],
      "stateMutability": "nonpayable",
      "type": "function"
    },
    {
      "inputs": [],
      "name": "voteYes",
      "outputs": [],
      "stateMutability": "nonpayable",
      "type": "function"
    },
    {
      "inputs": [
        {
          "internalType": "address",
          "name": "",
          "type": "address"
        }
      ],
      "name": "voted",
      "outputs": [
        {
          "internalType": "bool",
          "name": "",
          "type": "bool"
        }
      ],
      "stateMutability": "view",
      "type": "function"
    },
    {
      "inputs": [],
      "name": "votersCount",
      "outputs": [
        {
          "internalType": "uint256",
          "name": "",
          "type": "uint256"
        }
      ],
      "stateMutability": "view",
      "type": "function"
    },
    {
      "inputs": [],
      "name": "votesTotal",
      "outputs": [
        {
          "internalType": "uint256",
          "name": "yes",
          "type": "uint256"
        },
        {
          "internalType": "uint256",
          "name": "no",
          "type": "uint256"
        },
        {
          "internalType": "uint256",
          "name": "abstain",
          "type": "uint256"
        }
      ],
      "stateMutability": "view",
      "type": "function"
    },
    {
      "inputs": [],
      "name": "votingDuration",
      "outputs": [
        {
          "internalType": "uint256",
          "name": "",
          "type": "uint256"
        }
      ],
      "stateMutability": "view",
      "type": "function"
    },
    {
      "inputs": [],
      "name": "votingStart",
      "outputs": [
        {
          "internalType": "uint256",
          "name": "",
          "type": "uint256"
        }
      ],
      "stateMutability": "view",
      "type": "function"
    }
  ],
  "bytecode": "0x60a060405260006002553480156200001657600080fd5b50604051620019a6380380620019a683398181016040528101906200003c9190620002d3565b6200005c62000050620000ce60201b60201c565b620000d660201b60201c565b6301e133808210620000a5576040517f08c379a00000000000000000000000000000000000000000000000000000000081526004016200009c9062000354565b60405180910390fd5b81608081815250508060069080519060200190620000c59291906200019a565b50505062000544565b600033905090565b60008060009054906101000a900473ffffffffffffffffffffffffffffffffffffffff169050816000806101000a81548173ffffffffffffffffffffffffffffffffffffffff021916908373ffffffffffffffffffffffffffffffffffffffff1602179055508173ffffffffffffffffffffffffffffffffffffffff168173ffffffffffffffffffffffffffffffffffffffff167f8be0079c531659141344cd1fd0a4f28419497f9722a3daafe3b4186f6b6457e060405160405180910390a35050565b828054620001a89062000426565b90600052602060002090601f016020900481019282620001cc576000855562000218565b82601f10620001e757805160ff191683800117855562000218565b8280016001018555821562000218579182015b8281111562000217578251825591602001919060010190620001fa565b5b5090506200022791906200022b565b5090565b5b80821115620002465760008160009055506001016200022c565b5090565b6000620002616200025b846200039f565b62000376565b9050828152602081018484840111156200027a57600080fd5b62000287848285620003f0565b509392505050565b600082601f830112620002a157600080fd5b8151620002b38482602086016200024a565b91505092915050565b600081519050620002cd816200052a565b92915050565b60008060408385031215620002e757600080fd5b6000620002f785828601620002bc565b925050602083015167ffffffffffffffff8111156200031557600080fd5b62000323858286016200028f565b9150509250929050565b60006200033c601783620003d5565b9150620003498262000501565b602082019050919050565b600060208201905081810360008301526200036f816200032d565b9050919050565b60006200038262000395565b90506200039082826200045c565b919050565b6000604051905090565b600067ffffffffffffffff821115620003bd57620003bc620004c1565b5b620003c882620004f0565b9050602081019050919050565b600082825260208201905092915050565b6000819050919050565b60005b8381101562000410578082015181840152602081019050620003f3565b8381111562000420576000848401525b50505050565b600060028204905060018216806200043f57607f821691505b6020821081141562000456576200045562000492565b5b50919050565b6200046782620004f0565b810181811067ffffffffffffffff82111715620004895762000488620004c1565b5b80604052505050565b7f4e487b7100000000000000000000000000000000000000000000000000000000600052602260045260246000fd5b7f4e487b7100000000000000000000000000000000000000000000000000000000600052604160045260246000fd5b6000601f19601f8301169050919050565b7f526f756e64206475726174696f6e20746f6f206c6f6e67000000000000000000600082015250565b6200053581620003e6565b81146200054157600080fd5b50565b60805161143162000575600039600081816102ad015281816102f101528181610743015261098b01526114316000f3fe608060405234801561001057600080fd5b50600436106101005760003560e01c8063797d0fb211610097578063aec2ccae11610066578063aec2ccae14610231578063cb62f59b14610261578063eae005651461026b578063f2fde38b1461028957610100565b8063797d0fb2146101cd5780638da5cb5b146101eb57806390cf581c1461020957806398c079381461021357610100565b80634c0a6af0116100d35780634c0a6af01461017b57806354218cd814610185578063715018a6146101a5578063796b89b9146101af57610100565b8063101158af14610105578063132002fc14610123578063410346b31461014157806341c12a7014610171575b600080fd5b61010d6102a5565b60405161011a91906110a9565b60405180910390f35b61012b6102ab565b60405161013891906110a9565b60405180910390f35b61015b60048036038101906101569190610ddd565b6102cf565b6040516101689190610fb1565b60405180910390f35b6101796102ef565b005b610183610511565b005b61018d6105e2565b60405161019c939291906110c4565b60405180910390f35b6101ad6105fa565b005b6101b7610682565b6040516101c491906110a9565b60405180910390f35b6101d561068a565b6040516101e29190610fcc565b60405180910390f35b6101f3610718565b6040516102009190610f7b565b60405180910390f35b610211610741565b005b61021b610963565b60405161022891906110a9565b60405180910390f35b61024b60048036038101906102469190610ddd565b610969565b6040516102589190610f96565b60405180910390f35b610269610989565b005b610273610bab565b604051610280919061108e565b60405180910390f35b6102a3600480360381019061029e9190610ddd565b610be3565b005b60015481565b7f000000000000000000000000000000000000000000000000000000000000000081565b60076020528060005260406000206000915054906101000a900460ff1681565b7f000000000000000000000000000000000000000000000000000000000000000060015461031d9190611117565b610325610682565b10610365576040517f08c379a000000000000000000000000000000000000000000000000000000000815260040161035c9061102e565b60405180910390fd5b600860003073ffffffffffffffffffffffffffffffffffffffff1673ffffffffffffffffffffffffffffffffffffffff16815260200190815260200160002060009054906101000a900460ff16156103f2576040517f08c379a00000000000000000000000000000000000000000000000000000000081526004016103e99061100e565b60405180910390fd5b6001600860003073ffffffffffffffffffffffffffffffffffffffff1673ffffffffffffffffffffffffffffffffffffffff16815260200190815260200160002060006101000a81548160ff0219169083151502179055506001600760003073ffffffffffffffffffffffffffffffffffffffff1673ffffffffffffffffffffffffffffffffffffffff16815260200190815260200160002060006101000a81548160ff021916908360028111156104d3577f4e487b7100000000000000000000000000000000000000000000000000000000600052602160045260246000fd5b02179055506001600260008282546104eb9190611117565b925050819055506001600360010160008282546105089190611117565b92505081905550565b600060015414610556576040517f08c379a000000000000000000000000000000000000000000000000000000000815260040161054d9061104e565b60405180910390fd5b61055e610cdb565b73ffffffffffffffffffffffffffffffffffffffff1661057c610718565b73ffffffffffffffffffffffffffffffffffffffff16146105d2576040517f08c379a00000000000000000000000000000000000000000000000000000000081526004016105c99061106e565b60405180910390fd5b6105da610682565b600181905550565b60038060000154908060010154908060020154905083565b610602610cdb565b73ffffffffffffffffffffffffffffffffffffffff16610620610718565b73ffffffffffffffffffffffffffffffffffffffff1614610676576040517f08c379a000000000000000000000000000000000000000000000000000000000815260040161066d9061106e565b60405180910390fd5b6106806000610ce3565b565b600042905090565b600680546106979061120d565b80601f01602080910402602001604051908101604052809291908181526020018280546106c39061120d565b80156107105780601f106106e557610100808354040283529160200191610710565b820191906000526020600020905b8154815290600101906020018083116106f357829003601f168201915b505050505081565b60008060009054906101000a900473ffffffffffffffffffffffffffffffffffffffff16905090565b7f000000000000000000000000000000000000000000000000000000000000000060015461076f9190611117565b610777610682565b106107b7576040517f08c379a00000000000000000000000000000000000000000000000000000000081526004016107ae9061102e565b60405180910390fd5b600860003073ffffffffffffffffffffffffffffffffffffffff1673ffffffffffffffffffffffffffffffffffffffff16815260200190815260200160002060009054906101000a900460ff1615610844576040517f08c379a000000000000000000000000000000000000000000000000000000000815260040161083b9061100e565b60405180910390fd5b6001600860003073ffffffffffffffffffffffffffffffffffffffff1673ffffffffffffffffffffffffffffffffffffffff16815260200190815260200160002060006101000a81548160ff0219169083151502179055506000600760003073ffffffffffffffffffffffffffffffffffffffff1673ffffffffffffffffffffffffffffffffffffffff16815260200190815260200160002060006101000a81548160ff02191690836002811115610925577f4e487b7100000000000000000000000000000000000000000000000000000000600052602160045260246000fd5b021790555060016002600082825461093d9190611117565b9250508190555060016003600001600082825461095a9190611117565b92505081905550565b60025481565b60086020528060005260406000206000915054906101000a900460ff1681565b7f00000000000000000000000000000000000000000000000000000000000000006001546109b79190611117565b6109bf610682565b106109ff576040517f08c379a00000000000000000000000000000000000000000000000000000000081526004016109f69061102e565b60405180910390fd5b600860003073ffffffffffffffffffffffffffffffffffffffff1673ffffffffffffffffffffffffffffffffffffffff16815260200190815260200160002060009054906101000a900460ff1615610a8c576040517f08c379a0000000000000000000000000000000000000000000000000000000008152600401610a839061100e565b60405180910390fd5b6001600860003073ffffffffffffffffffffffffffffffffffffffff1673ffffffffffffffffffffffffffffffffffffffff16815260200190815260200160002060006101000a81548160ff0219169083151502179055506002600760003073ffffffffffffffffffffffffffffffffffffffff1673ffffffffffffffffffffffffffffffffffffffff16815260200190815260200160002060006101000a81548160ff02191690836002811115610b6d577f4e487b7100000000000000000000000000000000000000000000000000000000600052602160045260246000fd5b0217905550600160026000828254610b859190611117565b92505081905550600160036002016000828254610ba29190611117565b92505081905550565b610bb3610da7565b60036040518060600160405290816000820154815260200160018201548152602001600282015481525050905090565b610beb610cdb565b73ffffffffffffffffffffffffffffffffffffffff16610c09610718565b73ffffffffffffffffffffffffffffffffffffffff1614610c5f576040517f08c379a0000000000000000000000000000000000000000000000000000000008152600401610c569061106e565b60405180910390fd5b600073ffffffffffffffffffffffffffffffffffffffff168173ffffffffffffffffffffffffffffffffffffffff161415610ccf576040517f08c379a0000000000000000000000000000000000000000000000000000000008152600401610cc690610fee565b60405180910390fd5b610cd881610ce3565b50565b600033905090565b60008060009054906101000a900473ffffffffffffffffffffffffffffffffffffffff169050816000806101000a81548173ffffffffffffffffffffffffffffffffffffffff021916908373ffffffffffffffffffffffffffffffffffffffff1602179055508173ffffffffffffffffffffffffffffffffffffffff168173ffffffffffffffffffffffffffffffffffffffff167f8be0079c531659141344cd1fd0a4f28419497f9722a3daafe3b4186f6b6457e060405160405180910390a35050565b60405180606001604052806000815260200160008152602001600081525090565b600081359050610dd7816113e4565b92915050565b600060208284031215610def57600080fd5b6000610dfd84828501610dc8565b91505092915050565b610e0f8161116d565b82525050565b610e1e8161117f565b82525050565b610e2d816111c8565b82525050565b6000610e3e826110fb565b610e488185611106565b9350610e588185602086016111da565b610e61816112cc565b840191505092915050565b6000610e79602683611106565b9150610e84826112dd565b604082019050919050565b6000610e9c601183611106565b9150610ea78261132c565b602082019050919050565b6000610ebf601283611106565b9150610eca82611355565b602082019050919050565b6000610ee2601583611106565b9150610eed8261137e565b602082019050919050565b6000610f05602083611106565b9150610f10826113a7565b602082019050919050565b606082016000820151610f316000850182610f5d565b506020820151610f446020850182610f5d565b506040820151610f576040850182610f5d565b50505050565b610f66816111be565b82525050565b610f75816111be565b82525050565b6000602082019050610f906000830184610e06565b92915050565b6000602082019050610fab6000830184610e15565b92915050565b6000602082019050610fc66000830184610e24565b92915050565b60006020820190508181036000830152610fe68184610e33565b905092915050565b6000602082019050818103600083015261100781610e6c565b9050919050565b6000602082019050818103600083015261102781610e8f565b9050919050565b6000602082019050818103600083015261104781610eb2565b9050919050565b6000602082019050818103600083015261106781610ed5565b9050919050565b6000602082019050818103600083015261108781610ef8565b9050919050565b60006060820190506110a36000830184610f1b565b92915050565b60006020820190506110be6000830184610f6c565b92915050565b60006060820190506110d96000830186610f6c565b6110e66020830185610f6c565b6110f36040830184610f6c565b949350505050565b600081519050919050565b600082825260208201905092915050565b6000611122826111be565b915061112d836111be565b9250827fffffffffffffffffffffffffffffffffffffffffffffffffffffffffffffffff038211156111625761116161123f565b5b828201905092915050565b60006111788261119e565b9050919050565b60008115159050919050565b6000819050611199826113d0565b919050565b600073ffffffffffffffffffffffffffffffffffffffff82169050919050565b6000819050919050565b60006111d38261118b565b9050919050565b60005b838110156111f85780820151818401526020810190506111dd565b83811115611207576000848401525b50505050565b6000600282049050600182168061122557607f821691505b602082108114156112395761123861129d565b5b50919050565b7f4e487b7100000000000000000000000000000000000000000000000000000000600052601160045260246000fd5b7f4e487b7100000000000000000000000000000000000000000000000000000000600052602160045260246000fd5b7f4e487b7100000000000000000000000000000000000000000000000000000000600052602260045260246000fd5b6000601f19601f8301169050919050565b7f4f776e61626c653a206e6577206f776e657220697320746865207a65726f206160008201527f6464726573730000000000000000000000000000000000000000000000000000602082015250565b7f596f7520616c726561647920766f746564000000000000000000000000000000600082015250565b7f566f74696e67206973206e6f74206f70656e0000000000000000000000000000600082015250565b7f566f74696e6720616c7265616479206f70656e65640000000000000000000000600082015250565b7f4f776e61626c653a2063616c6c6572206973206e6f7420746865206f776e6572600082015250565b600381106113e1576113e061126e565b5b50565b6113ed8161116d565b81146113f857600080fd5b5056fea2646970667358221220544e9b5f342b03506d2b59762b20475516cf597a6fd67f20896385b7144cb38464736f6c63430008040033",
  "linkReferences": {},
  "deployedLinkReferences": {}
}