{
  "_format": "hh-sol-artifact-1",
  "contractName": "Voting",
  "sourceName": "contracts/Voting.sol",
  "abi": [
    {
      "inputs": [
        {
          "internalType": "uint256",
          "name": "_roundDuration",
          "type": "uint256"
        },
        {
          "internalType": "string",
          "name": "_proposalUri",
          "type": "string"
        }
      ],
      "stateMutability": "nonpayable",
      "type": "constructor"
    },
    {
      "anonymous": false,
      "inputs": [
        {
          "indexed": true,
          "internalType": "address",
          "name": "previousOwner",
          "type": "address"
        },
        {
          "indexed": true,
          "internalType": "address",
          "name": "newOwner",
          "type": "address"
        }
      ],
      "name": "OwnershipTransferred",
      "type": "event"
    },
    {
      "inputs": [
        {
          "internalType": "address",
          "name": "",
          "type": "address"
        }
      ],
      "name": "choices",
      "outputs": [
        {
          "internalType": "enum Voting.Choice",
          "name": "",
          "type": "uint8"
        }
      ],
      "stateMutability": "view",
      "type": "function"
    },
    {
      "inputs": [],
      "name": "getAllVoters",
      "outputs": [
        {
          "internalType": "address[]",
          "name": "",
          "type": "address[]"
        }
      ],
      "stateMutability": "view",
      "type": "function"
    },
    {
      "inputs": [],
      "name": "getBlockTimestamp",
      "outputs": [
        {
          "internalType": "uint256",
          "name": "",
          "type": "uint256"
        }
      ],
      "stateMutability": "view",
      "type": "function"
    },
    {
      "inputs": [],
      "name": "getVotesResult",
      "outputs": [
        {
          "components": [
            {
              "internalType": "uint256",
              "name": "yes",
              "type": "uint256"
            },
            {
              "internalType": "uint256",
              "name": "no",
              "type": "uint256"
            },
            {
              "internalType": "uint256",
              "name": "abstain",
              "type": "uint256"
            }
          ],
          "internalType": "struct Voting.Votes",
          "name": "",
          "type": "tuple"
        }
      ],
      "stateMutability": "view",
      "type": "function"
    },
    {
      "inputs": [],
      "name": "isOpen",
      "outputs": [
        {
          "internalType": "bool",
          "name": "",
          "type": "bool"
        }
      ],
      "stateMutability": "view",
      "type": "function"
    },
    {
      "inputs": [],
      "name": "owner",
      "outputs": [
        {
          "internalType": "address",
          "name": "",
          "type": "address"
        }
      ],
      "stateMutability": "view",
      "type": "function"
    },
    {
      "inputs": [],
      "name": "proposalUri",
      "outputs": [
        {
          "internalType": "string",
          "name": "",
          "type": "string"
        }
      ],
      "stateMutability": "view",
      "type": "function"
    },
    {
      "inputs": [],
      "name": "renounceOwnership",
      "outputs": [],
      "stateMutability": "nonpayable",
      "type": "function"
    },
    {
      "inputs": [],
      "name": "startVote",
      "outputs": [],
      "stateMutability": "nonpayable",
      "type": "function"
    },
    {
      "inputs": [
        {
          "internalType": "address",
          "name": "newOwner",
          "type": "address"
        }
      ],
      "name": "transferOwnership",
      "outputs": [],
      "stateMutability": "nonpayable",
      "type": "function"
    },
    {
      "inputs": [],
      "name": "voteAbstain",
      "outputs": [],
      "stateMutability": "nonpayable",
      "type": "function"
    },
    {
      "inputs": [],
      "name": "voteNo",
      "outputs": [],
      "stateMutability": "nonpayable",
      "type": "function"
    },
    {
      "inputs": [],
      "name": "voteYes",
      "outputs": [],
      "stateMutability": "nonpayable",
      "type": "function"
    },
    {
      "inputs": [
        {
          "internalType": "address",
          "name": "",
          "type": "address"
        }
      ],
      "name": "voted",
      "outputs": [
        {
          "internalType": "bool",
          "name": "",
          "type": "bool"
        }
      ],
      "stateMutability": "view",
      "type": "function"
    },
    {
      "inputs": [
        {
          "internalType": "uint256",
          "name": "",
          "type": "uint256"
        }
      ],
      "name": "voters",
      "outputs": [
        {
          "internalType": "address",
          "name": "",
          "type": "address"
        }
      ],
      "stateMutability": "view",
      "type": "function"
    },
    {
      "inputs": [],
      "name": "votersCount",
      "outputs": [
        {
          "internalType": "uint256",
          "name": "",
          "type": "uint256"
        }
      ],
      "stateMutability": "view",
      "type": "function"
    },
    {
      "inputs": [],
      "name": "votesTotal",
      "outputs": [
        {
          "internalType": "uint256",
          "name": "yes",
          "type": "uint256"
        },
        {
          "internalType": "uint256",
          "name": "no",
          "type": "uint256"
        },
        {
          "internalType": "uint256",
          "name": "abstain",
          "type": "uint256"
        }
      ],
      "stateMutability": "view",
      "type": "function"
    },
    {
      "inputs": [],
      "name": "votingDuration",
      "outputs": [
        {
          "internalType": "uint256",
          "name": "",
          "type": "uint256"
        }
      ],
      "stateMutability": "view",
      "type": "function"
    },
    {
      "inputs": [],
      "name": "votingStart",
      "outputs": [
        {
          "internalType": "uint256",
          "name": "",
          "type": "uint256"
        }
      ],
      "stateMutability": "view",
      "type": "function"
    }
  ],
  "bytecode": "0x60a060405260006002553480156200001657600080fd5b5060405162001e9d38038062001e9d83398181016040528101906200003c9190620002d3565b6200005c62000050620000ce60201b60201c565b620000d660201b60201c565b6301e133808210620000a5576040517f08c379a00000000000000000000000000000000000000000000000000000000081526004016200009c9062000354565b60405180910390fd5b81608081815250508060079080519060200190620000c59291906200019a565b50505062000544565b600033905090565b60008060009054906101000a900473ffffffffffffffffffffffffffffffffffffffff169050816000806101000a81548173ffffffffffffffffffffffffffffffffffffffff021916908373ffffffffffffffffffffffffffffffffffffffff1602179055508173ffffffffffffffffffffffffffffffffffffffff168173ffffffffffffffffffffffffffffffffffffffff167f8be0079c531659141344cd1fd0a4f28419497f9722a3daafe3b4186f6b6457e060405160405180910390a35050565b828054620001a89062000426565b90600052602060002090601f016020900481019282620001cc576000855562000218565b82601f10620001e757805160ff191683800117855562000218565b8280016001018555821562000218579182015b8281111562000217578251825591602001919060010190620001fa565b5b5090506200022791906200022b565b5090565b5b80821115620002465760008160009055506001016200022c565b5090565b6000620002616200025b846200039f565b62000376565b9050828152602081018484840111156200027a57600080fd5b62000287848285620003f0565b509392505050565b600082601f830112620002a157600080fd5b8151620002b38482602086016200024a565b91505092915050565b600081519050620002cd816200052a565b92915050565b60008060408385031215620002e757600080fd5b6000620002f785828601620002bc565b925050602083015167ffffffffffffffff8111156200031557600080fd5b62000323858286016200028f565b9150509250929050565b60006200033c601783620003d5565b9150620003498262000501565b602082019050919050565b600060208201905081810360008301526200036f816200032d565b9050919050565b60006200038262000395565b90506200039082826200045c565b919050565b6000604051905090565b600067ffffffffffffffff821115620003bd57620003bc620004c1565b5b620003c882620004f0565b9050602081019050919050565b600082825260208201905092915050565b6000819050919050565b60005b8381101562000410578082015181840152602081019050620003f3565b8381111562000420576000848401525b50505050565b600060028204905060018216806200043f57607f821691505b6020821081141562000456576200045562000492565b5b50919050565b6200046782620004f0565b810181811067ffffffffffffffff82111715620004895762000488620004c1565b5b80604052505050565b7f4e487b7100000000000000000000000000000000000000000000000000000000600052602260045260246000fd5b7f4e487b7100000000000000000000000000000000000000000000000000000000600052604160045260246000fd5b6000601f19601f8301169050919050565b7f526f756e64206475726174696f6e20746f6f206c6f6e67000000000000000000600082015250565b6200053581620003e6565b81146200054157600080fd5b50565b608051611928620005756000396000818161033a015281816104f5015281816109b70152610c6201526119286000f3fe608060405234801561001057600080fd5b50600436106101215760003560e01c8063796b89b9116100ad578063aec2ccae11610071578063aec2ccae1461028e578063cb62f59b146102be578063da58c7d9146102c8578063eae00565146102f8578063f2fde38b1461031657610121565b8063796b89b91461020c578063797d0fb21461022a5780638da5cb5b1461024857806390cf581c1461026657806398c079381461027057610121565b806341c12a70116100f457806341c12a70146101b057806347535d7b146101ba5780634c0a6af0146101d857806354218cd8146101e2578063715018a61461020257610121565b8063101158af14610126578063132002fc1461014457806335bbe70e14610162578063410346b314610180575b600080fd5b61012e610332565b60405161013b9190611507565b60405180910390f35b61014c610338565b6040516101599190611507565b60405180910390f35b61016a61035c565b60405161017791906113d2565b60405180910390f35b61019a6004803603810190610195919061116b565b6104d3565b6040516101a7919061140f565b60405180910390f35b6101b86104f3565b005b6101c2610778565b6040516101cf91906113f4565b60405180910390f35b6101e0610785565b005b6101ea610856565b6040516101f993929190611522565b60405180910390f35b61020a61086e565b005b6102146108f6565b6040516102219190611507565b60405180910390f35b6102326108fe565b60405161023f919061142a565b60405180910390f35b61025061098c565b60405161025d91906113b7565b60405180910390f35b61026e6109b5565b005b610278610c3a565b6040516102859190611507565b60405180910390f35b6102a860048036038101906102a3919061116b565b610c40565b6040516102b591906113f4565b60405180910390f35b6102c6610c60565b005b6102e260048036038101906102dd9190611194565b610ee5565b6040516102ef91906113b7565b60405180910390f35b610300610f24565b60405161030d91906114ec565b60405180910390f35b610330600480360381019061032b919061116b565b610f5c565b005b60015481565b7f000000000000000000000000000000000000000000000000000000000000000081565b6060600060025467ffffffffffffffff8111156103a2577f4e487b7100000000000000000000000000000000000000000000000000000000600052604160045260246000fd5b6040519080825280602002602001820160405280156103d05781602001602082028036833780820191505090505b50905060005b6002548110156104cb576006818154811061041a577f4e487b7100000000000000000000000000000000000000000000000000000000600052603260045260246000fd5b9060005260206000200160009054906101000a900473ffffffffffffffffffffffffffffffffffffffff1682828151811061047e577f4e487b7100000000000000000000000000000000000000000000000000000000600052603260045260246000fd5b602002602001019073ffffffffffffffffffffffffffffffffffffffff16908173ffffffffffffffffffffffffffffffffffffffff168152505080806104c3906116d6565b9150506103d6565b508091505090565b60086020528060005260406000206000915054906101000a900460ff1681565b7f000000000000000000000000000000000000000000000000000000000000000060015461052191906115ae565b6105296108f6565b10610569576040517f08c379a00000000000000000000000000000000000000000000000000000000081526004016105609061148c565b60405180910390fd5b600960003073ffffffffffffffffffffffffffffffffffffffff1673ffffffffffffffffffffffffffffffffffffffff16815260200190815260200160002060009054906101000a900460ff16156105f6576040517f08c379a00000000000000000000000000000000000000000000000000000000081526004016105ed9061146c565b60405180910390fd5b6001600960003073ffffffffffffffffffffffffffffffffffffffff1673ffffffffffffffffffffffffffffffffffffffff16815260200190815260200160002060006101000a81548160ff0219169083151502179055506001600860003073ffffffffffffffffffffffffffffffffffffffff1673ffffffffffffffffffffffffffffffffffffffff16815260200190815260200160002060006101000a81548160ff021916908360028111156106d7577f4e487b7100000000000000000000000000000000000000000000000000000000600052602160045260246000fd5b02179055506001600260008282546106ef91906115ae565b9250508190555060016003600101600082825461070c91906115ae565b925050819055506006309080600181540180825580915050600190039060005260206000200160009091909190916101000a81548173ffffffffffffffffffffffffffffffffffffffff021916908373ffffffffffffffffffffffffffffffffffffffff160217905550565b6000806001541415905090565b6000600154146107ca576040517f08c379a00000000000000000000000000000000000000000000000000000000081526004016107c1906114ac565b60405180910390fd5b6107d2611054565b73ffffffffffffffffffffffffffffffffffffffff166107f061098c565b73ffffffffffffffffffffffffffffffffffffffff1614610846576040517f08c379a000000000000000000000000000000000000000000000000000000000815260040161083d906114cc565b60405180910390fd5b61084e6108f6565b600181905550565b60038060000154908060010154908060020154905083565b610876611054565b73ffffffffffffffffffffffffffffffffffffffff1661089461098c565b73ffffffffffffffffffffffffffffffffffffffff16146108ea576040517f08c379a00000000000000000000000000000000000000000000000000000000081526004016108e1906114cc565b60405180910390fd5b6108f4600061105c565b565b600042905090565b6007805461090b906116a4565b80601f0160208091040260200160405190810160405280929190818152602001828054610937906116a4565b80156109845780601f1061095957610100808354040283529160200191610984565b820191906000526020600020905b81548152906001019060200180831161096757829003601f168201915b505050505081565b60008060009054906101000a900473ffffffffffffffffffffffffffffffffffffffff16905090565b7f00000000000000000000000000000000000000000000000000000000000000006001546109e391906115ae565b6109eb6108f6565b10610a2b576040517f08c379a0000000000000000000000000000000000000000000000000000000008152600401610a229061148c565b60405180910390fd5b600960003073ffffffffffffffffffffffffffffffffffffffff1673ffffffffffffffffffffffffffffffffffffffff16815260200190815260200160002060009054906101000a900460ff1615610ab8576040517f08c379a0000000000000000000000000000000000000000000000000000000008152600401610aaf9061146c565b60405180910390fd5b6001600960003073ffffffffffffffffffffffffffffffffffffffff1673ffffffffffffffffffffffffffffffffffffffff16815260200190815260200160002060006101000a81548160ff0219169083151502179055506000600860003073ffffffffffffffffffffffffffffffffffffffff1673ffffffffffffffffffffffffffffffffffffffff16815260200190815260200160002060006101000a81548160ff02191690836002811115610b99577f4e487b7100000000000000000000000000000000000000000000000000000000600052602160045260246000fd5b0217905550600160026000828254610bb191906115ae565b92505081905550600160036000016000828254610bce91906115ae565b925050819055506006309080600181540180825580915050600190039060005260206000200160009091909190916101000a81548173ffffffffffffffffffffffffffffffffffffffff021916908373ffffffffffffffffffffffffffffffffffffffff160217905550565b60025481565b60096020528060005260406000206000915054906101000a900460ff1681565b7f0000000000000000000000000000000000000000000000000000000000000000600154610c8e91906115ae565b610c966108f6565b10610cd6576040517f08c379a0000000000000000000000000000000000000000000000000000000008152600401610ccd9061148c565b60405180910390fd5b600960003073ffffffffffffffffffffffffffffffffffffffff1673ffffffffffffffffffffffffffffffffffffffff16815260200190815260200160002060009054906101000a900460ff1615610d63576040517f08c379a0000000000000000000000000000000000000000000000000000000008152600401610d5a9061146c565b60405180910390fd5b6001600960003073ffffffffffffffffffffffffffffffffffffffff1673ffffffffffffffffffffffffffffffffffffffff16815260200190815260200160002060006101000a81548160ff0219169083151502179055506002600860003073ffffffffffffffffffffffffffffffffffffffff1673ffffffffffffffffffffffffffffffffffffffff16815260200190815260200160002060006101000a81548160ff02191690836002811115610e44577f4e487b7100000000000000000000000000000000000000000000000000000000600052602160045260246000fd5b0217905550600160026000828254610e5c91906115ae565b92505081905550600160036002016000828254610e7991906115ae565b925050819055506006309080600181540180825580915050600190039060005260206000200160009091909190916101000a81548173ffffffffffffffffffffffffffffffffffffffff021916908373ffffffffffffffffffffffffffffffffffffffff160217905550565b60068181548110610ef557600080fd5b906000526020600020016000915054906101000a900473ffffffffffffffffffffffffffffffffffffffff1681565b610f2c611120565b60036040518060600160405290816000820154815260200160018201548152602001600282015481525050905090565b610f64611054565b73ffffffffffffffffffffffffffffffffffffffff16610f8261098c565b73ffffffffffffffffffffffffffffffffffffffff1614610fd8576040517f08c379a0000000000000000000000000000000000000000000000000000000008152600401610fcf906114cc565b60405180910390fd5b600073ffffffffffffffffffffffffffffffffffffffff168173ffffffffffffffffffffffffffffffffffffffff161415611048576040517f08c379a000000000000000000000000000000000000000000000000000000000815260040161103f9061144c565b60405180910390fd5b6110518161105c565b50565b600033905090565b60008060009054906101000a900473ffffffffffffffffffffffffffffffffffffffff169050816000806101000a81548173ffffffffffffffffffffffffffffffffffffffff021916908373ffffffffffffffffffffffffffffffffffffffff1602179055508173ffffffffffffffffffffffffffffffffffffffff168173ffffffffffffffffffffffffffffffffffffffff167f8be0079c531659141344cd1fd0a4f28419497f9722a3daafe3b4186f6b6457e060405160405180910390a35050565b60405180606001604052806000815260200160008152602001600081525090565b600081359050611150816118c4565b92915050565b600081359050611165816118db565b92915050565b60006020828403121561117d57600080fd5b600061118b84828501611141565b91505092915050565b6000602082840312156111a657600080fd5b60006111b484828501611156565b91505092915050565b60006111c983836111d5565b60208301905092915050565b6111de81611604565b82525050565b6111ed81611604565b82525050565b60006111fe82611569565b611208818561158c565b935061121383611559565b8060005b8381101561124457815161122b88826111bd565b97506112368361157f565b925050600181019050611217565b5085935050505092915050565b61125a81611616565b82525050565b6112698161165f565b82525050565b600061127a82611574565b611284818561159d565b9350611294818560208601611671565b61129d816117ac565b840191505092915050565b60006112b560268361159d565b91506112c0826117bd565b604082019050919050565b60006112d860118361159d565b91506112e38261180c565b602082019050919050565b60006112fb60128361159d565b915061130682611835565b602082019050919050565b600061131e60158361159d565b91506113298261185e565b602082019050919050565b600061134160208361159d565b915061134c82611887565b602082019050919050565b60608201600082015161136d6000850182611399565b5060208201516113806020850182611399565b5060408201516113936040850182611399565b50505050565b6113a281611655565b82525050565b6113b181611655565b82525050565b60006020820190506113cc60008301846111e4565b92915050565b600060208201905081810360008301526113ec81846111f3565b905092915050565b60006020820190506114096000830184611251565b92915050565b60006020820190506114246000830184611260565b92915050565b60006020820190508181036000830152611444818461126f565b905092915050565b60006020820190508181036000830152611465816112a8565b9050919050565b60006020820190508181036000830152611485816112cb565b9050919050565b600060208201905081810360008301526114a5816112ee565b9050919050565b600060208201905081810360008301526114c581611311565b9050919050565b600060208201905081810360008301526114e581611334565b9050919050565b60006060820190506115016000830184611357565b92915050565b600060208201905061151c60008301846113a8565b92915050565b600060608201905061153760008301866113a8565b61154460208301856113a8565b61155160408301846113a8565b949350505050565b6000819050602082019050919050565b600081519050919050565b600081519050919050565b6000602082019050919050565b600082825260208201905092915050565b600082825260208201905092915050565b60006115b982611655565b91506115c483611655565b9250827fffffffffffffffffffffffffffffffffffffffffffffffffffffffffffffffff038211156115f9576115f861171f565b5b828201905092915050565b600061160f82611635565b9050919050565b60008115159050919050565b6000819050611630826118b0565b919050565b600073ffffffffffffffffffffffffffffffffffffffff82169050919050565b6000819050919050565b600061166a82611622565b9050919050565b60005b8381101561168f578082015181840152602081019050611674565b8381111561169e576000848401525b50505050565b600060028204905060018216806116bc57607f821691505b602082108114156116d0576116cf61177d565b5b50919050565b60006116e182611655565b91507fffffffffffffffffffffffffffffffffffffffffffffffffffffffffffffffff8214156117145761171361171f565b5b600182019050919050565b7f4e487b7100000000000000000000000000000000000000000000000000000000600052601160045260246000fd5b7f4e487b7100000000000000000000000000000000000000000000000000000000600052602160045260246000fd5b7f4e487b7100000000000000000000000000000000000000000000000000000000600052602260045260246000fd5b6000601f19601f8301169050919050565b7f4f776e61626c653a206e6577206f776e657220697320746865207a65726f206160008201527f6464726573730000000000000000000000000000000000000000000000000000602082015250565b7f596f7520616c726561647920766f746564000000000000000000000000000000600082015250565b7f566f74696e67206973206e6f74206f70656e0000000000000000000000000000600082015250565b7f566f74696e6720616c7265616479206f70656e65640000000000000000000000600082015250565b7f4f776e61626c653a2063616c6c6572206973206e6f7420746865206f776e6572600082015250565b600381106118c1576118c061174e565b5b50565b6118cd81611604565b81146118d857600080fd5b50565b6118e481611655565b81146118ef57600080fd5b5056fea26469706673582212207264a6a871427490e2700e60ebec81d29a560d0b8fdb522dfe7dc48efab3674564736f6c63430008040033",
  "linkReferences": {},
  "deployedLinkReferences": {}
}